{
  "contractName": "MyContract",
  "abi": [
    {
      "constant": true,
      "inputs": [],
      "name": "myAddress",
      "outputs": [
        {
          "name": "",
          "type": "address"
        }
      ],
      "payable": false,
      "stateMutability": "view",
      "type": "function"
    },
    {
      "constant": true,
      "inputs": [],
      "name": "myBool",
      "outputs": [
        {
          "name": "",
          "type": "bool"
        }
      ],
      "payable": false,
      "stateMutability": "view",
      "type": "function"
    },
    {
      "constant": true,
      "inputs": [],
      "name": "myUint8",
      "outputs": [
        {
          "name": "",
          "type": "uint8"
        }
      ],
      "payable": false,
      "stateMutability": "view",
      "type": "function"
    },
    {
      "inputs": [],
      "payable": true,
      "stateMutability": "payable",
      "type": "constructor"
    },
    {
      "constant": false,
      "inputs": [],
      "name": "fundMyContract",
      "outputs": [],
      "payable": true,
      "stateMutability": "payable",
      "type": "function"
    },
    {
      "constant": false,
      "inputs": [],
      "name": "withDrawal",
      "outputs": [],
      "payable": false,
      "stateMutability": "nonpayable",
      "type": "function"
    },
    {
      "constant": false,
      "inputs": [
        {
          "name": "myBoolArgument",
          "type": "bool"
        }
      ],
      "name": "setMyBoolean",
      "outputs": [],
      "payable": false,
      "stateMutability": "nonpayable",
      "type": "function"
    },
    {
      "constant": true,
      "inputs": [],
      "name": "getMyBoolean",
      "outputs": [
        {
          "name": "",
          "type": "bool"
        }
      ],
      "payable": false,
      "stateMutability": "view",
      "type": "function"
    }
  ],
  "bytecode": "0x608060405260008060006101000a81548160ff0219169083151502179055506040805190810160405280600881526020017f6d79537472696e67000000000000000000000000000000000000000000000000815250600290805190602001906100699291906100fc565b506040805190810160405280600881526020017f6d79537472696e67000000000000000000000000000000000000000000000000815250600390805190602001906100b592919061017c565b5033600060016101000a81548173ffffffffffffffffffffffffffffffffffffffff021916908373ffffffffffffffffffffffffffffffffffffffff160217905550610221565b828054600181600116156101000203166002900490600052602060002090601f016020900481019282601f1061013d57805160ff191683800117855561016b565b8280016001018555821561016b579182015b8281111561016a57825182559160200191906001019061014f565b5b50905061017891906101fc565b5090565b828054600181600116156101000203166002900490600052602060002090601f016020900481019282601f106101bd57805160ff19168380011785556101eb565b828001600101855582156101eb579182015b828111156101ea5782518255916020019190600101906101cf565b5b5090506101f891906101fc565b5090565b61021e91905b8082111561021a576000816000905550600101610202565b5090565b90565b610341806102306000396000f300608060405260043610610083576000357c0100000000000000000000000000000000000000000000000000000000900463ffffffff168063113a72c01461008857806326b85ee1146100b75780636deecdbe1461010e57806373932bfd1461013d57806376fe0b4714610154578063e2a4b2af14610183578063e61e0061146101b4575b600080fd5b34801561009457600080fd5b506100b56004803603810190808035151590602001909291905050506101be565b005b3480156100c357600080fd5b506100cc610236565b604051808273ffffffffffffffffffffffffffffffffffffffff1673ffffffffffffffffffffffffffffffffffffffff16815260200191505060405180910390f35b34801561011a57600080fd5b5061012361025c565b604051808215151515815260200191505060405180910390f35b34801561014957600080fd5b5061015261026e565b005b34801561016057600080fd5b506101696102ea565b604051808215151515815260200191505060405180910390f35b34801561018f57600080fd5b50610198610300565b604051808260ff1660ff16815260200191505060405180910390f35b6101bc610313565b005b600060019054906101000a900473ffffffffffffffffffffffffffffffffffffffff1673ffffffffffffffffffffffffffffffffffffffff163373ffffffffffffffffffffffffffffffffffffffff1614151561021a57600080fd5b806000806101000a81548160ff02191690831515021790555050565b600060019054906101000a900473ffffffffffffffffffffffffffffffffffffffff1681565b6000809054906101000a900460ff1681565b600115156000809054906101000a900460ff16151514156102e8573373ffffffffffffffffffffffffffffffffffffffff166108fc3073ffffffffffffffffffffffffffffffffffffffff16319081150290604051600060405180830381858888f193505050501580156102e6573d6000803e3d6000fd5b505b565b60008060009054906101000a900460ff16905090565b600060159054906101000a900460ff1681565b5600a165627a7a72305820dd25d09fac0650e98aede5e5e4f80fef6b5fe3500077fe9ea32e3af9255c9e110029",
  "source": "pragma solidity ^0.4.19;\n\ncontract MyContract {\n   bool public myBool = false;\n\n   address public myAddress;\n\n   uint8 public myUint8;\n   uint256 myUint256;\n\n   string myString = \"myString\";\n   bytes myBytes = \"myString\";\n\n   constructor() public payable{\n       myAddress = msg.sender;\n   }\n\n   function fundMyContract() public  payable{\n\n   }\n\n   function withDrawal() public {\n       if(myBool == true){\n        msg.sender.transfer(address(this).balance);\n       }\n   }\n\n   function setMyBoolean(bool myBoolArgument) public {\n       require(msg.sender == myAddress);\n       myBool = myBoolArgument;\n   }\n\n   function getMyBoolean() public view  returns(bool) {\n       return myBool;\n   }\n\n\n}\n",
  "sourcePath": "/Users/alexanderkehaya/Desktop/MyContract_Tutorial/app/contracts/MyContract.sol",
  "compiler": {
    "name": "solc",
    "version": "0.4.24+commit.e67f0147.Emscripten.clang"
  },
  "schemaVersion": "2.0.0",
  "updatedAt": "2018-05-22T16:06:46.263Z"
}